:0F0000007155111D111D51D5540FC3940D60047E
:10000F00111580EF113571A690045971B72271A6A1
:10001F0090040971B7E52071AF90040071B771B208
:10002F0090041071B7221141116A118A11A511D4D0
:0F003F0011F471A690041771B751D5FF71B2EF8C
:10004E00513A71AF714C51D5FE513A71AFEF540F19
:0E005E00C48EF053F00F45F07850F62271A6D4
:0E006C0090042771B790043371B271B771A67A
:10007A0090043971B771B290044A71B751D5FE2212
:0F008A00C394016011C3EE9402600BC3EE9403A4
:0F00990060051115020078EE7851F62290046888
:1000A80071A671B751D5FF71B2EF513A71AF714C6A
:1000B80051D5FE513A71AFEF540FC48EF053F00F83
:1000C80045F07004111511A57852F62271A67950E1
:1000D800E7F5F0C0F0C4540F513A71AFD0F0E5F035
:0F00E800540F513A71AF90047971B7227851E6F5
:0E00F700F5F0C39401600AE5F0C39402605C6A
:0F0105000201977852E6FF1F7850E6F9E7F5F010
:0F011400C0F0C4540F513A71AFD0F0E5F0540F62
:10012300513A71AF71B290047B71B70201CD78512E
:0F013300E6F5F0C3940160D6E5F0C394026028AE
:0F014200E5F0C3940360577851E6F5F0C39401DC
:1001510060BEE5F0C394026010E5F0C39403603F14
:100161007852E6FF1F7850E6F97402C0E0E7F5F037
:0F017100C0F0C4540F513A71AFD0F0E5F0540F05
:0F018000513A71AFD0E01460040902016C71B202
:10018F0090047B71B70201CD7852E6FF1F7850E6DD
:0F019F00F97404C0E0E7F5F0C0F0C4540F513A12
:0F01AE0071AFD0F0E5F0540F513A71AFD0E014BB
:1001BD006004090201A271B290047B71B70201CDF6
:1001CD0051D5F5F0C39400600CE5F0C394016015B2
:0F01DD0011150201CDEF6045091FE9C0E071A6C1
:1001EC00D0E011D93149EF2401C3955260307451DC
:1001FC00F8E6F5F0C3940170041902021EE5F0C391
:10020C009402700619191902021EC3191919191929
:0E021C0019190FE9C0E071A6D0E011D93131F7
:10022A0090048C71A671B771A611D411F402023729
:0F023A00F5F0C394007003743022E5F0C3940113
:0F0249007003743122E5F0C39402700374322203
:0F025800E5F0C394037003743322E5F0C39404FC
:0F0267007003743422E5F0C394057003743522DC
:0F027600E5F0C394067003743622E5F0C39407D5
:0F0285007003743722E5F0C394087003743822B5
:0F029400E5F0C394097003743922E5F0C3940AAE
:0F02A3007003744122E5F0C3940B700374422280
:0F02B200E5F0C3940C7003744322E5F0C3940D80
:0F02C1007003744422E5F0C3940E700374452259
:1002D000E5F07446227580FFC280208403740122F9
:0F02E000208503740222208603740322208703E3
:1002EF00740A22D280C281208403740422208503E1
:0F02FF00740522208603740622208703740B22C5
:10030E00D281C282208403740722208503740822BE
:10031E00208603740922208703740C22D282C283A2
:0F032E00208403740E222085037400222086038E
:0F033D00740F22208792740D22FD714CDDFC227B
:0F034C007B017C01DCFEDBFA22740F714674002A
:10035B00F590F5B0743071957405714674307195E4
:10036B00714C74307195743C719574087195740669
:0F037B007195740F719571A622D2B0C2B1714CF9
:0F038A00D2B2714CF590714CC2B222C2B0C2B166
:0F039900714CD2B2714CF590714CC2B22274010A
:1003A8007195748071952271842274C0719522E4CC
:0B03B800937184714CA3600280F52259
:100400004543454E3433333000432E572E422E00A1
:10041000442D44554D5000454E544552204D454DB8
:1004200020414444523A0053454C454354204441F2
:10043000544100545950453A00312E2042595445F8
:100440002C20322E20574F524400332E20444F553B
:10045000424C4520574F524400494E56414C494466
:1004600020494E5055542E00454E5445522044418B
:1004700054412053495A453A003A00302E204E4507
:1004800058542C20312E204241434B00454E4420ED
:090490004F4620444154412E0066
:00000001FF
